:10025300020D0000021A00000A0FC0F9A4B099921F
:1002630082F88090011E00010800011C00011900A2
:03027300011D006A
:040299007F107E272D
:0B029D00EF1FAC0670011E4C70F62233
:03000B00020115DA
:10011500C0E0C0D0758CFC758A18D28C050EE50E32
:100125007002050D051BE51B7002051AD2A4D2A5A8
:10013500D2A6D2A7C3E50E94F4E50D94014008B20A
:1001450091750D00750E00C3E51B94E8E51A94033F
:1001550040080519751A00751B00D3E519648094CC
:10016500BB4005751900051CD3E51C648094BB4094
:1001750005751C000508D3E5086480949740037550
:100185000800E51E7007850980C2A78022E51EB418
:100195000107850A80C2A68016E51EB40207850BF5
:1001A50080C2A5800AE51EB40305850C80C2A4059E
:1001B5001ED3E51E648094834003751E00D0D0D005
:0201C500E03226
:03001B0002000ED2
:09000E00758DFC758B18D28E3241
:0E02A800758911D2ABD28ED2A9D28CD2AF22E0
:10001E00E4FDFBFAC200C201C2021202A820B722FE
:10002E0012029920B73A0DEDC3941E4033200030D2
:10003E00C2B67F887E1312029DD2B6751D01D20004
:10004E00801EED6017C3941E5012E51DB401057598
:10005E001D028008E51DB40203E4F51DC200E4FD97
:10006E0020A01412029920A02A0BEBC3941E402349
:10007E00200120D201801CEB6015C3941E5010E5A8
:10008E001DB4010405088007E51DB40202051CC25B
:10009E0001E4FB20A11412029920A12A0AEAC394BA
:1000AE001E4023200220D202801CEA6015C3941E3B
:1000BE005010E51DB4010415088007E51DB40202B9
:1000CE00151CC202E4FAE50875F00A120277240F35
:1000DE00F8E6F509E50875F00A120277AFF0740F2D
:1000EE002FF8E6F50AE51C75F00A120277240FF8D0
:1000FE00E6F50BE51C75F00A120277AFF0740F2FC0
:07010E00F8E6F50C02002BDE
:030000000201C733
:0C01C700787FE4F6D8FD75812002020E5E
:10027700C2D530F707B2D563F0FF05F030E70CB20F
:10028700D5F4048463F0FF05F080018430D502F4CF
:0202970004223F
:1001D30002001EE493A3F8E493A34003F68001F224
:1001E30008DFF48029E493A3F85407240CC8C3332D
:1001F300C4540F4420C8834004F456800146F6DFFC
:10020300E4800B0102040810204080900253E47E36
:10021300019360BCA3FF543F30E509541FFEE493F0
:10022300A360010ECF54C025E060A840B8E493A3B7
:10023300FAE493A3F8E493A3C8C582C8CAC583CAE2
:10024300F0A3C8C582C8CAC583CADFE9DEE780BE9A
:010276000087
:00000001FF
